{
  "contractName": "DeSciContract",
  "abi": [
    {
      "anonymous": false,
      "inputs": [
        {
          "indexed": false,
          "internalType": "address",
          "name": "addrAuthor",
          "type": "address"
        },
        {
          "indexed": false,
          "internalType": "string",
          "name": "ipfsCid",
          "type": "string"
        }
      ],
      "name": "PaperAdded",
      "type": "event"
    },
    {
      "anonymous": false,
      "inputs": [
        {
          "indexed": false,
          "internalType": "string",
          "name": "paperCid",
          "type": "string"
        },
        {
          "indexed": false,
          "internalType": "address",
          "name": "author",
          "type": "address"
        }
      ],
      "name": "PaperAuthor",
      "type": "event"
    },
    {
      "anonymous": false,
      "inputs": [
        {
          "indexed": false,
          "internalType": "address",
          "name": "addrUser",
          "type": "address"
        },
        {
          "indexed": false,
          "internalType": "uint256",
          "name": "count",
          "type": "uint256"
        }
      ],
      "name": "PaperCount",
      "type": "event"
    },
    {
      "anonymous": false,
      "inputs": [
        {
          "indexed": false,
          "internalType": "string",
          "name": "ipfsCid",
          "type": "string"
        },
        {
          "indexed": false,
          "internalType": "uint256",
          "name": "reputation",
          "type": "uint256"
        }
      ],
      "name": "PaperReputation",
      "type": "event"
    },
    {
      "anonymous": false,
      "inputs": [
        {
          "indexed": false,
          "internalType": "string",
          "name": "paperCid",
          "type": "string"
        },
        {
          "indexed": false,
          "internalType": "address",
          "name": "reviewer",
          "type": "address"
        }
      ],
      "name": "PaperReviewer",
      "type": "event"
    },
    {
      "anonymous": false,
      "inputs": [
        {
          "indexed": false,
          "internalType": "string",
          "name": "papersInfoCid",
          "type": "string"
        }
      ],
      "name": "PapersInfo",
      "type": "event"
    },
    {
      "anonymous": false,
      "inputs": [
        {
          "indexed": false,
          "internalType": "string",
          "name": "papersReviewsCid",
          "type": "string"
        }
      ],
      "name": "PapersReviews",
      "type": "event"
    },
    {
      "anonymous": false,
      "inputs": [
        {
          "indexed": false,
          "internalType": "address",
          "name": "addrUser",
          "type": "address"
        },
        {
          "indexed": false,
          "internalType": "string",
          "name": "papersRepo",
          "type": "string"
        }
      ],
      "name": "UserRepository",
      "type": "event"
    },
    {
      "anonymous": false,
      "inputs": [
        {
          "indexed": false,
          "internalType": "address",
          "name": "addrUser",
          "type": "address"
        },
        {
          "indexed": false,
          "internalType": "uint256",
          "name": "reputation",
          "type": "uint256"
        }
      ],
      "name": "UserReputation",
      "type": "event"
    },
    {
      "inputs": [
        {
          "internalType": "string",
          "name": "",
          "type": "string"
        }
      ],
      "name": "paperAuthors",
      "outputs": [
        {
          "internalType": "address",
          "name": "",
          "type": "address"
        }
      ],
      "stateMutability": "view",
      "type": "function",
      "constant": true
    },
    {
      "inputs": [
        {
          "internalType": "string",
          "name": "",
          "type": "string"
        }
      ],
      "name": "paperReputations",
      "outputs": [
        {
          "internalType": "uint256",
          "name": "",
          "type": "uint256"
        }
      ],
      "stateMutability": "view",
      "type": "function",
      "constant": true
    },
    {
      "inputs": [],
      "name": "papersInfoCid",
      "outputs": [
        {
          "internalType": "string",
          "name": "",
          "type": "string"
        }
      ],
      "stateMutability": "view",
      "type": "function",
      "constant": true
    },
    {
      "inputs": [],
      "name": "papersReviewsCid",
      "outputs": [
        {
          "internalType": "string",
          "name": "",
          "type": "string"
        }
      ],
      "stateMutability": "view",
      "type": "function",
      "constant": true
    },
    {
      "inputs": [
        {
          "internalType": "address",
          "name": "",
          "type": "address"
        }
      ],
      "name": "userPaperCount",
      "outputs": [
        {
          "internalType": "uint256",
          "name": "",
          "type": "uint256"
        }
      ],
      "stateMutability": "view",
      "type": "function",
      "constant": true
    },
    {
      "inputs": [
        {
          "internalType": "address",
          "name": "",
          "type": "address"
        }
      ],
      "name": "userPapersRepo",
      "outputs": [
        {
          "internalType": "string",
          "name": "",
          "type": "string"
        }
      ],
      "stateMutability": "view",
      "type": "function",
      "constant": true
    },
    {
      "inputs": [
        {
          "internalType": "address",
          "name": "",
          "type": "address"
        }
      ],
      "name": "userReputations",
      "outputs": [
        {
          "internalType": "uint256",
          "name": "",
          "type": "uint256"
        }
      ],
      "stateMutability": "view",
      "type": "function",
      "constant": true
    },
    {
      "inputs": [
        {
          "internalType": "string",
          "name": "paperCid",
          "type": "string"
        },
        {
          "internalType": "string",
          "name": "repoCid",
          "type": "string"
        },
        {
          "internalType": "string",
          "name": "papersInfoDirCid",
          "type": "string"
        }
      ],
      "name": "addPaper",
      "outputs": [],
      "stateMutability": "nonpayable",
      "type": "function"
    },
    {
      "inputs": [
        {
          "internalType": "string",
          "name": "paperCid",
          "type": "string"
        },
        {
          "internalType": "string",
          "name": "reviewsCid",
          "type": "string"
        },
        {
          "internalType": "bool",
          "name": "isPositive",
          "type": "bool"
        }
      ],
      "name": "addReview",
      "outputs": [],
      "stateMutability": "nonpayable",
      "type": "function"
    },
    {
      "inputs": [],
      "name": "getUserReputation",
      "outputs": [],
      "stateMutability": "nonpayable",
      "type": "function"
    },
    {
      "inputs": [],
      "name": "getPaperCount",
      "outputs": [],
      "stateMutability": "nonpayable",
      "type": "function"
    },
    {
      "inputs": [
        {
          "internalType": "string",
          "name": "ipfsCid",
          "type": "string"
        }
      ],
      "name": "getPaperReputation",
      "outputs": [],
      "stateMutability": "nonpayable",
      "type": "function"
    },
    {
      "inputs": [],
      "name": "getUserReputationAndPaperCount",
      "outputs": [],
      "stateMutability": "nonpayable",
      "type": "function"
    },
    {
      "inputs": [],
      "name": "getUserPapersRepo",
      "outputs": [],
      "stateMutability": "nonpayable",
      "type": "function"
    },
    {
      "inputs": [],
      "name": "getPapersInfo",
      "outputs": [],
      "stateMutability": "nonpayable",
      "type": "function"
    },
    {
      "inputs": [],
      "name": "getPapersReviews",
      "outputs": [],
      "stateMutability": "nonpayable",
      "type": "function"
    },
    {
      "inputs": [
        {
          "internalType": "string",
          "name": "ipfsCid",
          "type": "string"
        }
      ],
      "name": "getPasperAuthor",
      "outputs": [],
      "stateMutability": "nonpayable",
      "type": "function"
    }
  ],
  "bytecode": "0x608060405234801561001057600080fd5b50611a42806100206000396000f3fe608060405234801561001057600080fd5b506004361061010b5760003560e01c80636a13dbcd116100a2578063cd78b91e11610071578063cd78b91e14610232578063d09e411214610262578063e1b6b0c91461026c578063e939dcd21461029c578063f8b11691146102b85761010b565b80636a13dbcd146101e657806388f85925146101f0578063c7988d411461020c578063c8884d55146102285761010b565b806347a35bd7116100de57806347a35bd71461017257806352f4270b146101a257806361a66524146101ac578063668cc9ea146101b65761010b565b8063133666c41461011057806313eedea01461012e578063237a346c1461014a5780633d7e97f214610168575b600080fd5b6101186102e8565b604051610125919061120c565b60405180910390f35b610148600480360381019061014391906112df565b610376565b005b610152610740565b60405161015f919061120c565b60405180910390f35b6101706107ce565b005b61018c600480360381019061018791906114a4565b610847565b604051610199919061152e565b60405180910390f35b6101aa610890565b005b6101b4610981565b005b6101d060048036038101906101cb9190611575565b6109fa565b6040516101dd919061120c565b60405180910390f35b6101ee610a9a565b005b61020a600480360381019061020591906115a2565b610ad4565b005b61022660048036038101906102219190611656565b610ee0565b005b610230610f3f565b005b61024c60048036038101906102479190611575565b610fb9565b60405161025991906116bc565b60405180910390f35b61026a610fd1565b005b610286600480360381019061028191906114a4565b61100b565b60405161029391906116bc565b60405180910390f35b6102b660048036038101906102b19190611656565b611039565b005b6102d260048036038101906102cd9190611575565b6110b8565b6040516102df91906116bc565b60405180910390f35b600580546102f590611706565b80601f016020809104026020016040519081016040528092919081815260200182805461032190611706565b801561036e5780601f106103435761010080835404028352916020019161036e565b820191906000526020600020905b81548152906001019060200180831161035157829003601f168201915b505050505081565b6000600160003373ffffffffffffffffffffffffffffffffffffffff1673ffffffffffffffffffffffffffffffffffffffff16815260200190815260200160002054905081156104925780600387876040516103d3929190611767565b908152602001604051809103902060008282546103f091906117af565b9250508190555060018060006004898960405161040e929190611767565b908152602001604051809103902060009054906101000a900473ffffffffffffffffffffffffffffffffffffffff1673ffffffffffffffffffffffffffffffffffffffff1673ffffffffffffffffffffffffffffffffffffffff168152602001908152602001600020600082825461048691906117af565b92505081905550610560565b80600387876040516104a5929190611767565b908152602001604051809103902060008282546104c29190611805565b925050819055506001806000600489896040516104e0929190611767565b908152602001604051809103902060009054906101000a900473ffffffffffffffffffffffffffffffffffffffff1673ffffffffffffffffffffffffffffffffffffffff1673ffffffffffffffffffffffffffffffffffffffff16815260200190815260200160002060008282546105589190611805565b925050819055505b8383600691906105719291906110d0565b507fccb0ab922c4daab9eded70438039add4d442598a64393dd4500cd20db8c827e98686336040516105a593929190611866565b60405180910390a17f062f60149aac3cb22935b0d4c97c10f3ef920ba9f790525dd8c39c7d561b5be960066040516105dd919061192d565b60405180910390a17f6ab84f78710ff3f046f200eeef4e6ad495690a614aa4a99cdc53035cd468f3e860048787604051610618929190611767565b908152602001604051809103902060009054906101000a900473ffffffffffffffffffffffffffffffffffffffff166001600060048a8a60405161065d929190611767565b908152602001604051809103902060009054906101000a900473ffffffffffffffffffffffffffffffffffffffff1673ffffffffffffffffffffffffffffffffffffffff1673ffffffffffffffffffffffffffffffffffffffff168152602001908152602001600020546040516106d592919061194f565b60405180910390a17fc62fd331c793da0b92fe165f42439a83873fac6f1544ccef49815398e6b55cbf868660038989604051610712929190611767565b90815260200160405180910390205460405161073093929190611978565b60405180910390a1505050505050565b6006805461074d90611706565b80601f016020809104026020016040519081016040528092919081815260200182805461077990611706565b80156107c65780601f1061079b576101008083540402835291602001916107c6565b820191906000526020600020905b8154815290600101906020018083116107a957829003601f168201915b505050505081565b7f156a0371d046f439bfaafd226fee2c9b8528fb7b7519928d9ebb870de6e5b1e8336000803373ffffffffffffffffffffffffffffffffffffffff1673ffffffffffffffffffffffffffffffffffffffff1681526020019081526020016000205460405161083d92919061194f565b60405180910390a1565b6004818051602081018201805184825260208301602085012081835280955050505050506000915054906101000a900473ffffffffffffffffffffffffffffffffffffffff1681565b7f6ab84f78710ff3f046f200eeef4e6ad495690a614aa4a99cdc53035cd468f3e833600160003373ffffffffffffffffffffffffffffffffffffffff1673ffffffffffffffffffffffffffffffffffffffff1681526020019081526020016000205460405161090092919061194f565b60405180910390a17f156a0371d046f439bfaafd226fee2c9b8528fb7b7519928d9ebb870de6e5b1e8336000803373ffffffffffffffffffffffffffffffffffffffff1673ffffffffffffffffffffffffffffffffffffffff1681526020019081526020016000205460405161097792919061194f565b60405180910390a1565b7fc5dc553bd7e9e637c04e96717fa834669be7545a1a6387021676e2f12510e2a033600260003373ffffffffffffffffffffffffffffffffffffffff1673ffffffffffffffffffffffffffffffffffffffff1681526020019081526020016000206040516109f09291906119aa565b60405180910390a1565b60026020528060005260406000206000915090508054610a1990611706565b80601f0160208091040260200160405190810160405280929190818152602001828054610a4590611706565b8015610a925780601f10610a6757610100808354040283529160200191610a92565b820191906000526020600020905b815481529060010190602001808311610a7557829003601f168201915b505050505081565b7f1f7ccb56c1c816fdbd035da33322ba057c5437835ff310c7fb809672c68b49656005604051610aca919061192d565b60405180910390a1565b600160003373ffffffffffffffffffffffffffffffffffffffff1673ffffffffffffffffffffffffffffffffffffffff1681526020019081526020016000205460038787604051610b26929190611767565b9081526020016040518091039020819055508383600260003373ffffffffffffffffffffffffffffffffffffffff1673ffffffffffffffffffffffffffffffffffffffff1681526020019081526020016000209190610b869291906110d0565b503360048787604051610b9a929190611767565b908152602001604051809103902060006101000a81548173ffffffffffffffffffffffffffffffffffffffff021916908373ffffffffffffffffffffffffffffffffffffffff16021790555060018060003373ffffffffffffffffffffffffffffffffffffffff1673ffffffffffffffffffffffffffffffffffffffff1681526020019081526020016000206000828254610c3591906117af565b9250508190555060016000803373ffffffffffffffffffffffffffffffffffffffff1673ffffffffffffffffffffffffffffffffffffffff1681526020019081526020016000206000828254610c8b91906117af565b92505081905550818160059190610ca39291906110d0565b507fc266b4d2a9c4bf8950b301731915212dd739010dafbf913bc2cf5012917a31dc338787604051610cd7939291906119da565b60405180910390a17fc5dc553bd7e9e637c04e96717fa834669be7545a1a6387021676e2f12510e2a033600260003373ffffffffffffffffffffffffffffffffffffffff1673ffffffffffffffffffffffffffffffffffffffff168152602001908152602001600020604051610d4e9291906119aa565b60405180910390a17f6ab84f78710ff3f046f200eeef4e6ad495690a614aa4a99cdc53035cd468f3e833600160003373ffffffffffffffffffffffffffffffffffffffff1673ffffffffffffffffffffffffffffffffffffffff16815260200190815260200160002054604051610dc692919061194f565b60405180910390a17fc62fd331c793da0b92fe165f42439a83873fac6f1544ccef49815398e6b55cbf868660038989604051610e03929190611767565b908152602001604051809103902054604051610e2193929190611978565b60405180910390a17f156a0371d046f439bfaafd226fee2c9b8528fb7b7519928d9ebb870de6e5b1e8336000803373ffffffffffffffffffffffffffffffffffffffff1673ffffffffffffffffffffffffffffffffffffffff16815260200190815260200160002054604051610e9892919061194f565b60405180910390a17f1f7ccb56c1c816fdbd035da33322ba057c5437835ff310c7fb809672c68b49656005604051610ed0919061192d565b60405180910390a1505050505050565b7fc62fd331c793da0b92fe165f42439a83873fac6f1544ccef49815398e6b55cbf828260038585604051610f15929190611767565b908152602001604051809103902054604051610f3393929190611978565b60405180910390a15050565b7f6ab84f78710ff3f046f200eeef4e6ad495690a614aa4a99cdc53035cd468f3e833600160003373ffffffffffffffffffffffffffffffffffffffff1673ffffffffffffffffffffffffffffffffffffffff16815260200190815260200160002054604051610faf92919061194f565b60405180910390a1565b60006020528060005260406000206000915090505481565b7f062f60149aac3cb22935b0d4c97c10f3ef920ba9f790525dd8c39c7d561b5be96006604051611001919061192d565b60405180910390a1565b6003818051602081018201805184825260208301602085012081835280955050505050506000915090505481565b7ff28d3079217e12b2a7ac1022e04e57415967c78d01736634c046f5dcc064e95982826004858560405161106e929190611767565b908152602001604051809103902060009054906101000a900473ffffffffffffffffffffffffffffffffffffffff166040516110ac93929190611866565b60405180910390a15050565b60016020528060005260406000206000915090505481565b8280546110dc90611706565b90600052602060002090601f0160209004810192826110fe5760008555611145565b82601f1061111757803560ff1916838001178555611145565b82800160010185558215611145579182015b82811115611144578235825591602001919060010190611129565b5b5090506111529190611156565b5090565b5b8082111561116f576000816000905550600101611157565b5090565b600081519050919050565b600082825260208201905092915050565b60005b838110156111ad578082015181840152602081019050611192565b838111156111bc576000848401525b50505050565b6000601f19601f8301169050919050565b60006111de82611173565b6111e8818561117e565b93506111f881856020860161118f565b611201816111c2565b840191505092915050565b6000602082019050818103600083015261122681846111d3565b905092915050565b6000604051905090565b600080fd5b600080fd5b600080fd5b600080fd5b600080fd5b60008083601f84011261126757611266611242565b5b8235905067ffffffffffffffff81111561128457611283611247565b5b6020830191508360018202830111156112a05761129f61124c565b5b9250929050565b60008115159050919050565b6112bc816112a7565b81146112c757600080fd5b50565b6000813590506112d9816112b3565b92915050565b6000806000806000606086880312156112fb576112fa611238565b5b600086013567ffffffffffffffff8111156113195761131861123d565b5b61132588828901611251565b9550955050602086013567ffffffffffffffff8111156113485761134761123d565b5b61135488828901611251565b93509350506040611367888289016112ca565b9150509295509295909350565b600080fd5b7f4e487b7100000000000000000000000000000000000000000000000000000000600052604160045260246000fd5b6113b1826111c2565b810181811067ffffffffffffffff821117156113d0576113cf611379565b5b80604052505050565b60006113e361122e565b90506113ef82826113a8565b919050565b600067ffffffffffffffff82111561140f5761140e611379565b5b611418826111c2565b9050602081019050919050565b82818337600083830152505050565b6000611447611442846113f4565b6113d9565b90508281526020810184848401111561146357611462611374565b5b61146e848285611425565b509392505050565b600082601f83011261148b5761148a611242565b5b813561149b848260208601611434565b91505092915050565b6000602082840312156114ba576114b9611238565b5b600082013567ffffffffffffffff8111156114d8576114d761123d565b5b6114e484828501611476565b91505092915050565b600073ffffffffffffffffffffffffffffffffffffffff82169050919050565b6000611518826114ed565b9050919050565b6115288161150d565b82525050565b6000602082019050611543600083018461151f565b92915050565b6115528161150d565b811461155d57600080fd5b50565b60008135905061156f81611549565b92915050565b60006020828403121561158b5761158a611238565b5b600061159984828501611560565b91505092915050565b600080600080600080606087890312156115bf576115be611238565b5b600087013567ffffffffffffffff8111156115dd576115dc61123d565b5b6115e989828a01611251565b9650965050602087013567ffffffffffffffff81111561160c5761160b61123d565b5b61161889828a01611251565b9450945050604087013567ffffffffffffffff81111561163b5761163a61123d565b5b61164789828a01611251565b92509250509295509295509295565b6000806020838503121561166d5761166c611238565b5b600083013567ffffffffffffffff81111561168b5761168a61123d565b5b61169785828601611251565b92509250509250929050565b6000819050919050565b6116b6816116a3565b82525050565b60006020820190506116d160008301846116ad565b92915050565b7f4e487b7100000000000000000000000000000000000000000000000000000000600052602260045260246000fd5b6000600282049050600182168061171e57607f821691505b602082108103611731576117306116d7565b5b50919050565b600081905092915050565b600061174e8385611737565b935061175b838584611425565b82840190509392505050565b6000611774828486611742565b91508190509392505050565b7f4e487b7100000000000000000000000000000000000000000000000000000000600052601160045260246000fd5b60006117ba826116a3565b91506117c5836116a3565b9250827fffffffffffffffffffffffffffffffffffffffffffffffffffffffffffffffff038211156117fa576117f9611780565b5b828201905092915050565b6000611810826116a3565b915061181b836116a3565b92508282101561182e5761182d611780565b5b828203905092915050565b6000611845838561117e565b9350611852838584611425565b61185b836111c2565b840190509392505050565b60006040820190508181036000830152611881818587611839565b9050611890602083018461151f565b949350505050565b60008190508160005260206000209050919050565b600081546118ba81611706565b6118c4818661117e565b945060018216600081146118df57600181146118f157611924565b60ff1983168652602086019350611924565b6118fa85611898565b60005b8381101561191c578154818901526001820191506020810190506118fd565b808801955050505b50505092915050565b6000602082019050818103600083015261194781846118ad565b905092915050565b6000604082019050611964600083018561151f565b61197160208301846116ad565b9392505050565b60006040820190508181036000830152611993818587611839565b90506119a260208301846116ad565b949350505050565b60006040820190506119bf600083018561151f565b81810360208301526119d181846118ad565b90509392505050565b60006040820190506119ef600083018661151f565b8181036020830152611a02818486611839565b905094935050505056fea26469706673582212200bebedbb1edc4b3a03780c6d361faa88bff6dcb0d9d26fab09605c4f2de2ffbb64736f6c634300080d0033",
  "immutableReferences": {},
  "source": "pragma solidity >=0.8.0 <0.9.0;\r\n\r\ncontract DeSciContract {\r\n\r\n    struct Review {\r\n        address reviewer;\r\n        bool isPositive;\r\n    }\r\n\r\n    // ----------------- DATA -----------------\r\n\r\n    mapping (address => uint) public userPaperCount;\r\n    mapping (address => uint) public userReputations;\r\n    mapping (address => string) public userPapersRepo;\r\n\r\n    mapping (string => uint) public paperReputations;\r\n    mapping (string => address) public paperAuthors;\r\n    \r\n    // we have a directory with a metadata file for each paper\r\n    string public papersInfoCid;\r\n\r\n    // inside we have a directory for each paper with the reviews\r\n    // the directory is named after the paper ipfsCid\r\n    string public papersReviewsCid;\r\n\r\n    event PaperAdded(address addrAuthor, string ipfsCid);\r\n    event UserReputation(address addrUser, uint reputation);\r\n    event PaperReputation(string ipfsCid, uint reputation);\r\n    event PaperCount(address addrUser, uint count);\r\n    event UserRepository(address addrUser, string papersRepo);\r\n    event PapersInfo(string papersInfoCid);\r\n    event PapersReviews(string papersReviewsCid);\r\n    event PaperReviewer(string paperCid, address reviewer);\r\n    event PaperAuthor(string paperCid, address author);\r\n\r\n    // ----------------- METHODS -----------------\r\n\r\n    function addPaper(string calldata paperCid, string calldata repoCid, string calldata papersInfoDirCid) public {\r\n        // use the hash of the ipfsCid as the paper address\r\n        // use the reputation of the author as the paper reputation\r\n        paperReputations[paperCid] = userReputations[msg.sender];\r\n        userPapersRepo[msg.sender] = repoCid;\r\n\r\n        // hash ipfsCid to get the paper address\r\n        paperAuthors[paperCid] = msg.sender;\r\n\r\n        userReputations[msg.sender] += 1;\r\n        userPaperCount[msg.sender] += 1;\r\n\r\n        // update the papers info cid\r\n        papersInfoCid = papersInfoDirCid;\r\n\r\n        emit PaperAdded(msg.sender, paperCid);\r\n        emit UserRepository(msg.sender, userPapersRepo[msg.sender]);\r\n        emit UserReputation(msg.sender, userReputations[msg.sender]);\r\n        emit PaperReputation(paperCid, paperReputations[paperCid]);\r\n        emit PaperCount(msg.sender, userPaperCount[msg.sender]);\r\n        emit PapersInfo(papersInfoCid);\r\n    }\r\n\r\n    function addReview(string calldata paperCid, string calldata reviewsCid, bool isPositive) public {\r\n        // TODO: check if the user has already reviewed the paper\r\n        // TODO: check if the user is the author of the paper\r\n\r\n        // get reputation of the reviewer\r\n        uint reputation = userReputations[msg.sender];\r\n\r\n        if(isPositive) {\r\n            // increase the paper reputation\r\n            paperReputations[paperCid] += reputation;\r\n\r\n            // increase the reputation of the author\r\n            userReputations[paperAuthors[paperCid]] += 1;\r\n        } else {\r\n            // decrease the paper reputation\r\n            paperReputations[paperCid] -= reputation;\r\n\r\n            // decrease the reputation of the author\r\n            userReputations[paperAuthors[paperCid]] -= 1;\r\n        }\r\n\r\n        // update the paper reviews cid\r\n        papersReviewsCid = reviewsCid;\r\n\r\n        emit PaperReviewer(paperCid, msg.sender);\r\n        emit PapersReviews(papersReviewsCid);\r\n        emit UserReputation(paperAuthors[paperCid], userReputations[paperAuthors[paperCid]]);\r\n        emit PaperReputation(paperCid, paperReputations[paperCid]);\r\n    }\r\n\r\n\r\n    // ----------------- GETTERS -----------------\r\n\r\n    function getUserReputation() public {\r\n        emit UserReputation(msg.sender, userReputations[msg.sender]);\r\n    }\r\n\r\n    function getPaperCount() public {\r\n        emit PaperCount(msg.sender, userPaperCount[msg.sender]);\r\n    }\r\n\r\n    function getPaperReputation(string calldata ipfsCid) public {\r\n        emit PaperReputation(ipfsCid, paperReputations[ipfsCid]);\r\n    }\r\n\r\n    function getUserReputationAndPaperCount() public {\r\n        emit UserReputation(msg.sender, userReputations[msg.sender]);\r\n        emit PaperCount(msg.sender, userPaperCount[msg.sender]);\r\n    }\r\n\r\n    function getUserPapersRepo() public {\r\n        emit UserRepository(msg.sender, userPapersRepo[msg.sender]);\r\n    }\r\n\r\n    function getPapersInfo() public {\r\n        emit PapersInfo(papersInfoCid);\r\n    }\r\n\r\n    function getPapersReviews() public {\r\n        emit PapersReviews(papersReviewsCid);\r\n    }\r\n\r\n    function getPasperAuthor(string calldata ipfsCid) public {\r\n        emit PaperAuthor(ipfsCid, paperAuthors[ipfsCid]);\r\n    }\r\n}",
  "sourcePath": "d:\\Desktop\\DeSci\\decentralized-science\\de-sci\\truffle\\contracts\\DeSciContract.sol",
  "compiler": {
    "name": "solc",
    "version": "0.8.13+commit.abaa5c0e.Emscripten.clang"
  },
  "schemaVersion": "3.4.11",
  "updatedAt": "2023-02-13T10:23:31.470Z",
  "networkType": "ethereum",
  "devdoc": {
    "kind": "dev",
    "methods": {},
    "version": 1
  },
  "userdoc": {
    "kind": "user",
    "methods": {},
    "version": 1
  }
}