{
  "contractName": "DeSciContract",
  "abi": [
    {
      "anonymous": false,
      "inputs": [
        {
          "indexed": false,
          "internalType": "address",
          "name": "addrAuthor",
          "type": "address"
        },
        {
          "indexed": false,
          "internalType": "string",
          "name": "ipfsCid",
          "type": "string"
        }
      ],
      "name": "PaperAdded",
      "type": "event"
    },
    {
      "anonymous": false,
      "inputs": [
        {
          "indexed": false,
          "internalType": "address",
          "name": "addrUser",
          "type": "address"
        },
        {
          "indexed": false,
          "internalType": "uint256",
          "name": "count",
          "type": "uint256"
        }
      ],
      "name": "PaperCount",
      "type": "event"
    },
    {
      "anonymous": false,
      "inputs": [
        {
          "indexed": false,
          "internalType": "string",
          "name": "ipfsCid",
          "type": "string"
        },
        {
          "indexed": false,
          "internalType": "uint256",
          "name": "reputation",
          "type": "uint256"
        }
      ],
      "name": "PaperReputation",
      "type": "event"
    },
    {
      "anonymous": false,
      "inputs": [
        {
          "indexed": false,
          "internalType": "string",
          "name": "ipfsCid",
          "type": "string"
        },
        {
          "indexed": false,
          "internalType": "uint256",
          "name": "reputation",
          "type": "uint256"
        }
      ],
      "name": "PaperReputationChanged",
      "type": "event"
    },
    {
      "anonymous": false,
      "inputs": [
        {
          "indexed": false,
          "internalType": "address",
          "name": "addrUser",
          "type": "address"
        },
        {
          "indexed": false,
          "internalType": "uint256",
          "name": "reputation",
          "type": "uint256"
        }
      ],
      "name": "ReputationChanged",
      "type": "event"
    },
    {
      "anonymous": false,
      "inputs": [
        {
          "indexed": false,
          "internalType": "address",
          "name": "addrUser",
          "type": "address"
        },
        {
          "indexed": false,
          "internalType": "uint256",
          "name": "reputation",
          "type": "uint256"
        }
      ],
      "name": "UserReputation",
      "type": "event"
    },
    {
      "inputs": [],
      "name": "lastPaperCid",
      "outputs": [
        {
          "internalType": "string",
          "name": "",
          "type": "string"
        }
      ],
      "stateMutability": "view",
      "type": "function",
      "constant": true
    },
    {
      "inputs": [
        {
          "internalType": "string",
          "name": "",
          "type": "string"
        }
      ],
      "name": "paperAuthors",
      "outputs": [
        {
          "internalType": "address",
          "name": "",
          "type": "address"
        }
      ],
      "stateMutability": "view",
      "type": "function",
      "constant": true
    },
    {
      "inputs": [],
      "name": "paperCount",
      "outputs": [
        {
          "internalType": "uint256",
          "name": "",
          "type": "uint256"
        }
      ],
      "stateMutability": "view",
      "type": "function",
      "constant": true
    },
    {
      "inputs": [
        {
          "internalType": "string",
          "name": "",
          "type": "string"
        }
      ],
      "name": "paperReputations",
      "outputs": [
        {
          "internalType": "uint256",
          "name": "",
          "type": "uint256"
        }
      ],
      "stateMutability": "view",
      "type": "function",
      "constant": true
    },
    {
      "inputs": [
        {
          "internalType": "address",
          "name": "",
          "type": "address"
        }
      ],
      "name": "userPaperCount",
      "outputs": [
        {
          "internalType": "uint256",
          "name": "",
          "type": "uint256"
        }
      ],
      "stateMutability": "view",
      "type": "function",
      "constant": true
    },
    {
      "inputs": [
        {
          "internalType": "address",
          "name": "",
          "type": "address"
        }
      ],
      "name": "userReputations",
      "outputs": [
        {
          "internalType": "uint256",
          "name": "",
          "type": "uint256"
        }
      ],
      "stateMutability": "view",
      "type": "function",
      "constant": true
    },
    {
      "inputs": [],
      "name": "getUserReputation",
      "outputs": [],
      "stateMutability": "nonpayable",
      "type": "function"
    },
    {
      "inputs": [],
      "name": "getPaperCount",
      "outputs": [],
      "stateMutability": "nonpayable",
      "type": "function"
    },
    {
      "inputs": [
        {
          "internalType": "string",
          "name": "ipfsCid",
          "type": "string"
        }
      ],
      "name": "getPaperReputation",
      "outputs": [],
      "stateMutability": "nonpayable",
      "type": "function"
    },
    {
      "inputs": [],
      "name": "getUserReputationAndPaperCount",
      "outputs": [],
      "stateMutability": "nonpayable",
      "type": "function"
    },
    {
      "inputs": [
        {
          "internalType": "string",
          "name": "ipfsCid",
          "type": "string"
        }
      ],
      "name": "increasePaperReputation",
      "outputs": [],
      "stateMutability": "nonpayable",
      "type": "function"
    },
    {
      "inputs": [
        {
          "internalType": "string",
          "name": "ipfsCid",
          "type": "string"
        }
      ],
      "name": "decreasePaperReputation",
      "outputs": [],
      "stateMutability": "nonpayable",
      "type": "function"
    },
    {
      "inputs": [
        {
          "internalType": "string",
          "name": "ipfsCid",
          "type": "string"
        }
      ],
      "name": "addPaper",
      "outputs": [],
      "stateMutability": "nonpayable",
      "type": "function"
    }
  ],
  "bytecode": "0x6080604052600060045560405180602001604052806000815250600590805190602001906200003092919062000045565b503480156200003e57600080fd5b5062000159565b828054620000539062000124565b90600052602060002090601f016020900481019282620000775760008555620000c3565b82601f106200009257805160ff1916838001178555620000c3565b82800160010185558215620000c3579182015b82811115620000c2578251825591602001919060010190620000a5565b5b509050620000d29190620000d6565b5090565b5b80821115620000f1576000816000905550600101620000d7565b5090565b7f4e487b7100000000000000000000000000000000000000000000000000000000600052602260045260246000fd5b600060028204905060018216806200013d57607f821691505b602082108103620001535762000152620000f5565b5b50919050565b61108e80620001696000396000f3fe608060405234801561001057600080fd5b50600436106100cf5760003560e01c8063a56c2cb91161008c578063cd78b91e11610066578063cd78b91e146101b0578063ddaf2689146101e0578063e1b6b0c9146101fe578063f8b116911461022e576100cf565b8063a56c2cb91461016c578063c7988d411461018a578063c8884d55146101a6576100cf565b80631716d43d146100d45780633d7e97f2146100f057806347a35bd7146100fa5780634d98f7db1461012a57806352f4270b146101465780638984a31e14610150575b600080fd5b6100ee60048036038101906100e99190610ad2565b61025e565b005b6100f86102f5565b005b610114600480360381019061010f9190610c60565b61036f565b6040516101219190610cea565b60405180910390f35b610144600480360381019061013f9190610ad2565b6103b8565b005b61014e610664565b005b61016a60048036038101906101659190610ad2565b610755565b005b6101746107ec565b6040516101819190610d1e565b60405180910390f35b6101a4600480360381019061019f9190610ad2565b6107f2565b005b6101ae610851565b005b6101ca60048036038101906101c59190610d65565b6108ca565b6040516101d79190610d1e565b60405180910390f35b6101e86108e2565b6040516101f59190610e1a565b60405180910390f35b61021860048036038101906102139190610c60565b610970565b6040516102259190610d1e565b60405180910390f35b61024860048036038101906102439190610d65565b61099e565b6040516102559190610d1e565b60405180910390f35b600160028383604051610272929190610e6c565b9081526020016040518091039020600082825461028f9190610eb4565b925050819055507fcce2475953898851b99ab695958c6561fa25be42046bb838ae4fc0b0dfd172be8282600285856040516102cb929190610e6c565b9081526020016040518091039020546040516102e993929190610f15565b60405180910390a15050565b7f156a0371d046f439bfaafd226fee2c9b8528fb7b7519928d9ebb870de6e5b1e833600360003373ffffffffffffffffffffffffffffffffffffffff1673ffffffffffffffffffffffffffffffffffffffff16815260200190815260200160002054604051610365929190610f47565b60405180910390a1565b6001818051602081018201805184825260208301602085012081835280955050505050506000915054906101000a900473ffffffffffffffffffffffffffffffffffffffff1681565b6001600460008282546103cb9190610f70565b925050819055508181600591906103e39291906109b6565b506000803373ffffffffffffffffffffffffffffffffffffffff1673ffffffffffffffffffffffffffffffffffffffff1681526020019081526020016000205460028383604051610435929190610e6c565b908152602001604051809103902081905550336001838360405161045a929190610e6c565b908152602001604051809103902060006101000a81548173ffffffffffffffffffffffffffffffffffffffff021916908373ffffffffffffffffffffffffffffffffffffffff16021790555060016000803373ffffffffffffffffffffffffffffffffffffffff1673ffffffffffffffffffffffffffffffffffffffff16815260200190815260200160002060008282546104f59190610f70565b925050819055506001600360003373ffffffffffffffffffffffffffffffffffffffff1673ffffffffffffffffffffffffffffffffffffffff168152602001908152602001600020600082825461054c9190610f70565b925050819055507fc266b4d2a9c4bf8950b301731915212dd739010dafbf913bc2cf5012917a31dc33838360405161058693929190610fc6565b60405180910390a17f02346ddcf76c3b1b394a4bdae70f10059e1b203aa11e9c1b0313e4a94db67322336000803373ffffffffffffffffffffffffffffffffffffffff1673ffffffffffffffffffffffffffffffffffffffff168152602001908152602001600020546040516105fd929190610f47565b60405180910390a17fcce2475953898851b99ab695958c6561fa25be42046bb838ae4fc0b0dfd172be82826002858560405161063a929190610e6c565b90815260200160405180910390205460405161065893929190610f15565b60405180910390a15050565b7f6ab84f78710ff3f046f200eeef4e6ad495690a614aa4a99cdc53035cd468f3e8336000803373ffffffffffffffffffffffffffffffffffffffff1673ffffffffffffffffffffffffffffffffffffffff168152602001908152602001600020546040516106d3929190610f47565b60405180910390a17f156a0371d046f439bfaafd226fee2c9b8528fb7b7519928d9ebb870de6e5b1e833600360003373ffffffffffffffffffffffffffffffffffffffff1673ffffffffffffffffffffffffffffffffffffffff1681526020019081526020016000205460405161074b929190610f47565b60405180910390a1565b600160028383604051610769929190610e6c565b908152602001604051809103902060008282546107869190610f70565b925050819055507fcce2475953898851b99ab695958c6561fa25be42046bb838ae4fc0b0dfd172be8282600285856040516107c2929190610e6c565b9081526020016040518091039020546040516107e093929190610f15565b60405180910390a15050565b60045481565b7fc62fd331c793da0b92fe165f42439a83873fac6f1544ccef49815398e6b55cbf828260028585604051610827929190610e6c565b90815260200160405180910390205460405161084593929190610f15565b60405180910390a15050565b7f6ab84f78710ff3f046f200eeef4e6ad495690a614aa4a99cdc53035cd468f3e8336000803373ffffffffffffffffffffffffffffffffffffffff1673ffffffffffffffffffffffffffffffffffffffff168152602001908152602001600020546040516108c0929190610f47565b60405180910390a1565b60036020528060005260406000206000915090505481565b600580546108ef90611027565b80601f016020809104026020016040519081016040528092919081815260200182805461091b90611027565b80156109685780601f1061093d57610100808354040283529160200191610968565b820191906000526020600020905b81548152906001019060200180831161094b57829003601f168201915b505050505081565b6002818051602081018201805184825260208301602085012081835280955050505050506000915090505481565b60006020528060005260406000206000915090505481565b8280546109c290611027565b90600052602060002090601f0160209004810192826109e45760008555610a2b565b82601f106109fd57803560ff1916838001178555610a2b565b82800160010185558215610a2b579182015b82811115610a2a578235825591602001919060010190610a0f565b5b509050610a389190610a3c565b5090565b5b80821115610a55576000816000905550600101610a3d565b5090565b6000604051905090565b600080fd5b600080fd5b600080fd5b600080fd5b600080fd5b60008083601f840112610a9257610a91610a6d565b5b8235905067ffffffffffffffff811115610aaf57610aae610a72565b5b602083019150836001820283011115610acb57610aca610a77565b5b9250929050565b60008060208385031215610ae957610ae8610a63565b5b600083013567ffffffffffffffff811115610b0757610b06610a68565b5b610b1385828601610a7c565b92509250509250929050565b600080fd5b6000601f19601f8301169050919050565b7f4e487b7100000000000000000000000000000000000000000000000000000000600052604160045260246000fd5b610b6d82610b24565b810181811067ffffffffffffffff82111715610b8c57610b8b610b35565b5b80604052505050565b6000610b9f610a59565b9050610bab8282610b64565b919050565b600067ffffffffffffffff821115610bcb57610bca610b35565b5b610bd482610b24565b9050602081019050919050565b82818337600083830152505050565b6000610c03610bfe84610bb0565b610b95565b905082815260208101848484011115610c1f57610c1e610b1f565b5b610c2a848285610be1565b509392505050565b600082601f830112610c4757610c46610a6d565b5b8135610c57848260208601610bf0565b91505092915050565b600060208284031215610c7657610c75610a63565b5b600082013567ffffffffffffffff811115610c9457610c93610a68565b5b610ca084828501610c32565b91505092915050565b600073ffffffffffffffffffffffffffffffffffffffff82169050919050565b6000610cd482610ca9565b9050919050565b610ce481610cc9565b82525050565b6000602082019050610cff6000830184610cdb565b92915050565b6000819050919050565b610d1881610d05565b82525050565b6000602082019050610d336000830184610d0f565b92915050565b610d4281610cc9565b8114610d4d57600080fd5b50565b600081359050610d5f81610d39565b92915050565b600060208284031215610d7b57610d7a610a63565b5b6000610d8984828501610d50565b91505092915050565b600081519050919050565b600082825260208201905092915050565b60005b83811015610dcc578082015181840152602081019050610db1565b83811115610ddb576000848401525b50505050565b6000610dec82610d92565b610df68185610d9d565b9350610e06818560208601610dae565b610e0f81610b24565b840191505092915050565b60006020820190508181036000830152610e348184610de1565b905092915050565b600081905092915050565b6000610e538385610e3c565b9350610e60838584610be1565b82840190509392505050565b6000610e79828486610e47565b91508190509392505050565b7f4e487b7100000000000000000000000000000000000000000000000000000000600052601160045260246000fd5b6000610ebf82610d05565b9150610eca83610d05565b925082821015610edd57610edc610e85565b5b828203905092915050565b6000610ef48385610d9d565b9350610f01838584610be1565b610f0a83610b24565b840190509392505050565b60006040820190508181036000830152610f30818587610ee8565b9050610f3f6020830184610d0f565b949350505050565b6000604082019050610f5c6000830185610cdb565b610f696020830184610d0f565b9392505050565b6000610f7b82610d05565b9150610f8683610d05565b9250827fffffffffffffffffffffffffffffffffffffffffffffffffffffffffffffffff03821115610fbb57610fba610e85565b5b828201905092915050565b6000604082019050610fdb6000830186610cdb565b8181036020830152610fee818486610ee8565b9050949350505050565b7f4e487b7100000000000000000000000000000000000000000000000000000000600052602260045260246000fd5b6000600282049050600182168061103f57607f821691505b60208210810361105257611051610ff8565b5b5091905056fea26469706673582212208b03858cb5a88af5debaa6dedfe9454bef3f1dd774a644d24ce85fee299f50d064736f6c634300080d0033",
  "immutableReferences": {},
  "source": "pragma solidity >=0.8.0 <0.9.0;\r\n\r\ncontract DeSciContract {\r\n\r\n    mapping (address => uint) public userReputations;\r\n    mapping (string => address) public paperAuthors;\r\n    mapping (string => uint) public paperReputations;\r\n    mapping (address => uint) public userPaperCount;\r\n    uint public paperCount = 0;\r\n    string public lastPaperCid = \"\";\r\n\r\n    event ReputationChanged(address addrUser, uint reputation);\r\n    event PaperReputationChanged(string ipfsCid, uint reputation);\r\n    event PaperAdded(address addrAuthor, string ipfsCid);\r\n    event UserReputation(address addrUser, uint reputation);\r\n    event PaperReputation(string ipfsCid, uint reputation);\r\n    event PaperCount(address addrUser, uint count);\r\n\r\n    function getUserReputation() public {\r\n        emit UserReputation(msg.sender, userReputations[msg.sender]);\r\n    }\r\n\r\n    function getPaperCount() public {\r\n        emit PaperCount(msg.sender, userPaperCount[msg.sender]);\r\n    }\r\n\r\n    function getPaperReputation(string calldata ipfsCid) public {\r\n        emit PaperReputation(ipfsCid, paperReputations[ipfsCid]);\r\n    }\r\n\r\n    function increaseReputation(address addr) private {\r\n        userReputations[addr] += 1;\r\n    }\r\n\r\n    function decreaseReputation(address addr) private {\r\n        userReputations[addr] -= 1;\r\n    }\r\n\r\n    function getUserReputationAndPaperCount() public {\r\n        emit UserReputation(msg.sender, userReputations[msg.sender]);\r\n        emit PaperCount(msg.sender, userPaperCount[msg.sender]);\r\n    }\r\n\r\n    function increasePaperReputation(string calldata ipfsCid) public {\r\n        // TODO: check if the user is the author of the paper in the log\r\n        paperReputations[ipfsCid] += 1;\r\n        emit PaperReputationChanged(ipfsCid, paperReputations[ipfsCid]);\r\n    }\r\n\r\n    function decreasePaperReputation(string calldata ipfsCid) public {\r\n        // TODO: check if the user is the author of the paper\r\n        paperReputations[ipfsCid] -= 1;\r\n        emit PaperReputationChanged(ipfsCid, paperReputations[ipfsCid]);\r\n    }\r\n\r\n    function addPaper(string calldata ipfsCid) public {\r\n        paperCount += 1;\r\n        lastPaperCid = ipfsCid;\r\n        // use the hash of the ipfsCid as the paper address\r\n        // use the reputation of the author as the paper reputation\r\n        paperReputations[ipfsCid] = userReputations[msg.sender];\r\n\r\n        // hash ipfsCid to get the paper address\r\n        paperAuthors[ipfsCid] = msg.sender;\r\n\r\n        userReputations[msg.sender] += 1;\r\n        userPaperCount[msg.sender] += 1;\r\n        emit PaperAdded(msg.sender, ipfsCid);\r\n        emit ReputationChanged(msg.sender, userReputations[msg.sender]);\r\n        emit PaperReputationChanged(ipfsCid, paperReputations[ipfsCid]);\r\n    }\r\n}",
  "sourcePath": "d:\\Desktop\\DeSci\\decentralized-science\\de-sci\\truffle\\contracts\\DeSciContract.sol",
  "compiler": {
    "name": "solc",
    "version": "0.8.13+commit.abaa5c0e.Emscripten.clang"
  },
  "schemaVersion": "3.4.11",
  "updatedAt": "2023-02-12T01:02:47.188Z",
  "networkType": "ethereum",
  "devdoc": {
    "kind": "dev",
    "methods": {},
    "version": 1
  },
  "userdoc": {
    "kind": "user",
    "methods": {},
    "version": 1
  }
}